:0400000088EF3FF056
:067ED200926A936A12009F
:107ED900C0F9A4B0999282F880908883C6A1868E51
:107EE90000212224281C50120FD96EDA6ADF508033
:107EF9006E1E50010FD96EDA6ADF50816E176A055E
:107F09000E166E9BEF3FF0D90EF66E7E0EF76E00E1
:107F19000EF86E00EE01F010EE15F00900F5CFEE47
:107F2900FFE550E150FAE10001B0EF3FF0186A199E
:107F39006A0BD01A6A1B6A1A4A1B2A640E1A5C0059
:107F49000E1B58F9E3184A192A1650185C175019CC
:107F590058D8B01200EED7216AD60E206E226A23B5
:107F69006A246A256A816869EC3FF0224A232A005B
:107F79000E1D6A1C6A24C01EF025C01FF077EC3F55
:107F8900F01D6A010E1C6E24C01EF025C01FF0777B
:107F9900EC3FF01D6A020E1C6E24C01EF025C01FA6
:107FA900F077EC3FF01D6A030E1C6E24C01EF0250D
:107FB900C01FF077EC3FF02250140A231004E0228E
:107FC90050280A231008E1244A252A2450110A2599
:107FD9001002E1246A256A2250320A231004E122A0
:107FE9006A236A201E211E20C080FF176A0A0E1606
:087FF9006E9BEC3FF0BAD7FFCC
:00000001FF
