:100000000C9446000C945D000C945D000C945D0013
:100010000C945D000C945D000C945D000C945D00EC
:100020000C945D000C945D000C945D000C945D00DC
:100030000C945D000C945D000C945D000C945D00CC
:100040000C945D000C945D000C945D000C945D00BC
:100050000C945D000C945D000C945D000C945D00AC
:100060000C945D000C945D000C945D000C945D009C
:100070000C945D000C945D000C945D000C945D008C
:100080000C945D000C945D000C945D0011241FBE67
:10009000CFEFD0E1DEBFCDBF11E0A0E0B1E0E4E200
:1000A000F1E000E00BBF02C007900D92A231B10752
:1000B000D9F70E945F000C9490000C9400008FEF21
:1000C0008ABB84BB2091110120957FE048EB50E072
:1000D0003FE16FEF7BBB25BB80E197E2FA013197EF
:1000E000F1F70197D9F73BBB25BB80E197E2FA0115
:1000F0003197F1F70197D9F7A0E0B1E03BBB8C91C4
:10010000809585BB88E893E1FA013197F1F7019773
:10011000D9F765BB119681E0A231B80779F7DACF3C
:04012000F894FFCF81
:100124003F065B4F666D7D077F6F777C395E797123
:0201340076FF54
:00000001FF
